{
  "contractName": "TodoList",
  "abi": [
    {
      "constant": true,
      "inputs": [],
      "name": "taskCount",
      "outputs": [
        {
          "name": "",
          "type": "uint256"
        }
      ],
      "payable": false,
      "stateMutability": "view",
      "type": "function",
      "signature": "0xb6cb58a5"
    }
  ],
  "bytecode": "0x608060405260008055348015601357600080fd5b506099806100226000396000f3fe608060405260043610603e5763ffffffff7c0100000000000000000000000000000000000000000000000000000000600035041663b6cb58a581146043575b600080fd5b348015604e57600080fd5b5060556067565b60408051918252519081900360200190f35b6000548156fea165627a7a72305820ee9b2e17dff463ccc98185dd37a2fb01f234be9e848dfccea7f144300a72e3870029",
  "source": "// SPDX-License-Identifier: UNLICENSED\r\n\r\npragma solidity ^0.5.0;\r\n\r\ncontract TodoList{\r\n    uint public taskCount = 0;\r\n}\r\n\r\n\r\n\r\n\r\n//create smart contract for todo list with name,date,description and store in blockchain\r\n// contract Todolist{\r\n//     //create array of structs\r\n//     struct Task{\r\n//         string name;\r\n//         string date;\r\n//         string description;\r\n//     }\r\n//     //create array of structs\r\n//     Task[] public tasks;\r\n//     //create variable to store number of tasks\r\n//     uint public taskCount = 0;\r\n//     //create variable to store number of tasks\r\n//     uint public completedCount = 0;\r\n//     //create variable to store number of tasks\r\n//     uint public uncompletedCount = 0;\r\n//     //create variable to store number of tasks\r\n//     uint public totalCount = 0;\r\n//     //create variable to store number of tasks\r\n//     uint public completedTotalCount = 0;\r\n//     //create variable to store number of tasks\r\n//     uint public uncompletedTotalCount = 0;\r\n//     //create variable to store number of tasks\r\n//     uint public totalTaskCount = 0;\r\n//     //create variable to store number of tasks\r\n//     uint public completedTotalTaskCount = 0;\r\n//     //create variable to store number of tasks\r\n//     uint public uncompletedTotalTaskCount = 0;\r\n//     //create variable to store number of tasks\r\n//     uint public totalCompletedTaskCount = 0;\r\n//     //create variable to store number of tasks\r\n//     uint public totalUncompletedTaskCount = 0;\r\n//     //create variable to store number of tasks\r\n//     uint public totalCompletedCount = 0;\r\n//     //create variable to store number of tasks\r\n//     uint public totalUncompletedCount = 0;\r\n//     //create variable to store number of tasks\r\n//     uint public totalCompletedTotalCount = 0;\r\n//     //create variable to store number of tasks\r\n//     uint public totalUncompletedTotalCount = 0;\r\n//     //create variable to store number of tasks\r\n//     uint public totalTaskCompletedCount = 0;\r\n//     //create variable to store number of tasks\r\n//     uint public totalTaskUncompletedCount = 0;\r\n//     //create variable to store number of tasks\r\n//     uint public totalTaskCompletedTotalCount = 0;\r\n//     //create variable to store number of tasks\r\n//     uint public totalTaskUncompletedTotalCount = 0;\r\n//     //create variable to store number of tasks\r\n//     uint public totalTaskCompletedTotalTaskCount = 0;\r\n//     //create variable to store number of tasks\r\n//     uint public totalTaskUncompletedTotalTaskCount = 0;\r\n//     //create variable\r\n// }\r\n\r\n\r\n",
  "sourcePath": "C:/Users/user/Desktop/Workspace/DAPP university/Todo App/contracts/TodoList.sol",
  "compiler": {
    "name": "solc",
    "version": "0.5.0+commit.1d4f565a.Emscripten.clang"
  },
  "schemaVersion": "3.0.1",
  "updatedAt": "2022-04-28T14:13:08.820Z",
  "devdoc": {
    "methods": {}
  },
  "userdoc": {
    "methods": {}
  }
}